:030000000208A54E
:0C08A500787FE4F6D8FD7581070208009A
:10080000E4F5A0C290C291C292C293C294C295D2A2
:1008100090C291C29230930920940620950375A04E
:100820000620930930940620950375A0662093094D
:1008300020940630950375A007C290D291C29230E1
:10084000930920940620950375A05B2093093094AA
:100850000620950375A06D2093092094063095031A
:1008600075A07FC290C291D2923093092094062045
:10087000950375A04F20930930940620950375A029
:100880007D20930920940630950375A06F30930363
:1008900002080F30940302080F30950302080FE49A
:0508A000F5A002080FA5
:00000001FF
