:030000000208A251
:0C08A200787FE4F6D8FD7581070208009D
:10080000C297C296C295C294C293C292C291C2903C
:10081000C2A0C2A1C2A2C2A3C2A4C2A5D2A0C2A1A8
:10082000C2A230A30820A40520A502D29020A308CC
:1008300030A40520A502D29120A30820A40530A54C
:1008400002D292C2A0D2A1C2A230A30820A4052045
:10085000A502D29320A30830A40520A502D294209B
:10086000A30820A40530A502D295C2A0C2A1D2A29D
:1008700030A30820A40520A502D29620A30830A406
:100880000520A502D29720A39320A49030A58DD255
:1008900097D296D295D294D293D292D291D29002FC
:0208A000081C32
:00000001FF
