:03000000020A22CF
:0C0A2200787FE4F6D8FD75811602099378
:0F0A1300507265737320616E79204B65793A00DC
:0609CD00D2877F017E00CD
:1009D300E4FDFCC3ED9FEC9E5015E4FBFA0BBB005A
:0F09E300010ABA04F8BBFBF50DBD00010C80E45E
:0109F20022E2
:0A0A2E008FA0C2861209CDC28722F4
:0A0A38008FA0D2861209CDC28722DA
:1009F3007F38120A2E1209CF7F0C120A2E7F0A7E2D
:100A0300001209D37F80120A2E7F0A7E000209D3C7
:1008F600C290D291D292D2932094073094FD7F3148
:1009060080122095073095FD7F32800820960830AA
:1009160096FD7F33120A38D290C291D292D293209A
:1009260094073094FD7F3480122095073095FD7F23
:100936003580082096083096FD7F36120A38D29008
:10094600D291C292D2932094073094FD7F378012C1
:100956002095073095FD7F3880082096083096FD53
:100966007F39120A38D290D291D292C2932094073C
:100976003096FD7F2A80122095073095FD7F3080C6
:0D098600082096083096FD7F23120A3822C3
:1009930078087C007D007BFF7A0A79137E007F0F45
:1009A3001208D09000001209F3AF8274082FF8E602
:1009B300FF600D120A38A37F327E001209D380E94B
:0A09C3007FC0120A2E1208F680FB16
:10080000E709F608DFFA8046E709F208DFFA803EDA
:1008100088828C83E709F0A3DFFA8032E309F608C7
:10082000DFFA8078E309F208DFFA807088828C832F
:10083000E309F0A3DFFA806489828A83E0A3F608E3
:10084000DFFA805889828A83E0A3F208DFFA804CBD
:1008500080D280FA80C680D4806980F28033801094
:1008600080A680EA809A80A880DA80E280CA8033FD
:1008700089828A83ECFAE493A3C8C582C8CCC58375
:10088000CCF0A3C8C582C8CCC583CCDFE9DEE78045
:100890000D89828A83E493A3F608DFF9ECFAA9F0C4
:1008A000EDFB2289828A83ECFAE0A3C8C582C8CC1A
:1008B000C583CCF0A3C8C582C8CCC583CCDFEADE33
:1008C000E880DB89828A83E493A3F208DFF980CC95
:1008D00088F0EF60010E4E60C388F0ED2402B4048E
:1008E0000050B9F582EB2402B4040050AF23234535
:0608F00082239008507302
:00000001FF
