:030000000208A54E
:0C08A500787FE4F6D8FD7581070208009A
:10080000E4F5A0C2B0C2B1C2B2C2A0C2A1C2A2D21B
:10081000B0C2B1C2B230A00920A10620A20375A0C7
:100820000620A00930A10620A20375A06620A00919
:1008300020A10630A20375A007C2B0D2B1C2B23067
:10084000A00920A10620A20375A05B20A00930A169
:100850000620A20375A06D20A00920A10630A203E6
:1008600075A07FC2B0C2B1D2B230A00920A10620CB
:10087000A20375A04F20A00930A10620A20375A0F5
:100880007D20A00920A10630A20375A06F30A0032F
:1008900002080F30A10302080F30A20302080FE480
:0508A000F5A002080FA5
:00000001FF
