:03000000020913DF
:0C091300787FE4F6D8FD75810B02095ACC
:0809DA0002080000020A0000FF
:1009BB00D2B6E4FFFE0FBF00010EBE75F8BF30F5D7
:0209CB00C2B6B2
:0109CD002207
:0C09CE00C2B4C2B5E4F5A08FA00209BBC2
:10099F00D2B4C2B5E4F5A08FA00509E50970020530
:0C09AF0008050BE50B7002050A0209BBED
:100800007F387E001209CE7F017E001209CE7F0C58
:100810007E001209CE7F807E001209CE7F067E0008
:100820001209CEE50964104508700B7FC0FE12095D
:10083000CEE4F508F509E50B6420450A700D7F014B
:10084000FE1209CEE4F50AF50B80D8D293D292D2EB
:1008500091D290C2902094087F3112099F3094FD6C
:100860002095087F3212099F3095FD2096087F332E
:1008700012099F3096FDD293D292D291D290C2911A
:100880002094087F3412099F3094FD2095087F350D
:1008900012099F3095FD2096087F3612099F3096E9
:1008A000FDD293D292D291D290C2922094087F37F7
:1008B00012099F3094FD2095087F3812099F3095CA
:1008C000FD2096087F3912099F3096FDD293D2926F
:1008D000D291D290C2932094087F2A12099F30941B
:1008E000FDD293D292D291D290C2932095087F30BC
:1008F00012099F3095FDD293D292D291D290C29399
:100900003096030208237F2312099F3096030208C2
:030910002380F849
:10091F00020800E493A3F8E493A34003F68001F2E6
:10092F0008DFF48029E493A3F85407240CC8C333D9
:10093F00C4540F4420C8834004F456800146F6DFA8
:10094F00E4800B01020408102040809009DAE47E55
:10095F00019360BCA3FF543F30E509541FFEE4939D
:10096F00A360010ECF54C025E060A840B8E493A364
:10097F00FAE493A3F8E493A3C8C582C8CAC583CA8F
:10098F00F0A3C8C582C8CAC583CADFE9DEE780BE47
:0109E2000014
:00000001FF
