:030000000209E30F
:0C09E300787FE4F6D8FD75810C0209C491
:0F09D400456E74657220746865206B65793A0012
:1008D600D2A17F017E001208F4C2A11208F4E9C475
:0E08E60054F0FFE5A0540F4FF5A0D2A17F0102
:1008F400E4FDFCC3ED9FEC9E5015E4FBFA0BBB003A
:0F090400010ABA04F8BBFBF50DBD00010C80E43D
:0109130022C1
:10099600A907E954F0FFE5A0540F4FF5A0C2A01235
:0709A60008D6C2A10208F40B
:1009AD00A907E954F0FFE5A0540F4FF5A0D2A0120E
:0709BD0008D6C2A10208F4F4
:060914007BFF7A0979D493
:06091A008B088A09890A1E
:10092000E4F50BF50CAB08AA09A90A850C82850B26
:1009300083120945FF600D1209AD050CE50C70E549
:04094000050B80E142
:010944002290
:100972007F017E001208F40F1209967F2812099651
:100982007F0C1209967F061209967F011209967F43
:040992008002099640
:10080000D297D296D295D294C290D291D292D293CC
:100810002094073094FD7F37801C2095073095FD8C
:100820007F3880122096073096FD7F398008209708
:10083000083097FD7F2F1209ADD290C291D292D28B
:10084000932094073094FD7F34801C2095073095C9
:10085000FD7F3580122096073096FD7F3680082078
:1008600097083097FD7F2A1209ADD290D291C2929B
:10087000D2932094073094FD7F31801C209507305F
:1008800095FD7F3280122096073096FD7F338008D9
:100890002097083097FD7F2D1209ADD290D291D2CA
:1008A00092C2932094103094FD7F01120996120990
:1008B000147FC00209962095073095FD7F30801285
:1008C0002096073096FD7F3D80082097083097FDE1
:0608D0007F2B1209AD228E
:1009C4001209721209147FC012099612080080FBE2
:10094500BB010CE58229F582E5833AF583E0225067
:1009550006E92582F8E622BBFE06E92582F8E222B1
:0D096500E58229F582E5833AF583E49322CB
:00000001FF
