:03000000020BFAF6
:0C0BFA00787FE4F6D8FD758154020C41B0
:100DE6001029484F5552532D3E203031202D2031A9
:100DF600320010194D494E54532D3E203031202DCE
:100E0600203630000F08204449474954414C2041C0
:0D0E16004C41524D0002170000023D00014A
:100E24007F307E00120E6C7FB87E0B120E3D7F3039
:090E34007E00120E6C7FB87E0BEB
:100E3D00E4FDFCD3ED9FEC9E5015E4FBFA0BBB00DB
:0F0E4D00010AEB64034A70F50DBD00010C80E44F
:010E5C002273
:0F0E5D00E4F517F518FE7F01120E6C7F807E0002
:100E6C008F90C2B7C2B5C2B67F2C7E01120E3DD296
:070E7C00B6120E3DC2B622C2
:100EC6008F90C2B7D2B5C2B67F2C7E01120E3DD22C
:070ED600B6120E3DC2B62268
:100EDD00D2A0D2A1D2A2C2A320A5047E007F02225D
:10080000120EDD8E518F52E5526402455160030293
:10081000091C120E5E74292518F8E6FF600D120EF1
:10082000C60518E51870EE051780EAE4F517F51807
:100830007FC8FE120E6CE518640245176019120A93
:1008400031E51825E02445F8A60608A6070518E5B1
:100850001870E3051780DFAE45AF467C007D0A12B5
:100860000CEEE5482FF548E5473EF547120E5D745E
:10087000192518F8E6FF600D120EC60518E5187068
:10088000EE051780EAE4F517F5187FC8FE120E6C26
:10089000E518640245176019120A31E51825E024AD
:1008A00041F8A60608A6070518E51870E3051780A5
:1008B000DFAE41AF427C007D0A120CEEE5442FF51D
:1008C0004AE5433EF549E4F517F5187FE87E031243
:1008D0000E3D7E00120E63E4F517F5187408251816
:1008E000F8E6FF600D120EC60518E51870EE051744
:1008F00080EAE4F517F5187FC4FE120E6CAF3AAE2D
:1009000039120D657F3A120EC6AF3CAE3B120D6533
:10091000120D5A755100755201020807C3E53E9445
:100920003CE53D648094804008053CE53C70020550
:100930003BC3E53C943CE53B648094804008053A29
:10094000E53A70020539E53A640D45397078C3E53A
:100950003C943CE53B64809480406BE53E943CE5F0
:100960003D64809480405F753D00753E017539009F
:10097000753A01753B00753C017F017E00120E6CDB
:10098000E4F517F51874082518F8E6FF600D120E47
:10099000C60518E51870EE051780EAE4F517F51896
:1009A0007FC4FE120E6CAF3AAE39120D657F201275
:1009B0000EC67F3A120EC6AF3CAE3B120D65120D4D
:1009C000557F20120EC6C3E53E943CE53D648094FD
:1009D000804028753D00753E017FC47E00120E6C7C
:1009E000AF3AAE39120D657F3A120EC6AF3CAE3B40
:1009F000120D65120D5A7F20120EC6C3E53C943CC1
:100A0000E53B648094804028753B00753C017FC4C1
:100A10007E00120E6CAF3AAE39120D657F3A120E9F
:100A2000C6AF3CAE3B120D65120D557F20120EC6AF
:010A300022A3
:100C8600E4F54DF54EF54FF550E4F54DF54E758905
:100C960001758CF8758ACCD28C308DFDC28CC28DD4
:100CA600054EE54E7002054DB4EFE3E54DB401DEA9
:100CB600053EE53E7002053D120D5A120800E53A62
:100CC600B54811E539B5470CE53CB54A07E53BB5EE
:100CD6004902C2800550E5507002054FC3943CE5B9
:070CE6004F6480948040A2DE
:010CED0022E4
:100E8300120E24120E24120E327F38120E347F01FA
:100E9300120E347F0C120E34120E687FB87E0B02D2
:020EA3000E3D02
:100A31007F61EF64737003020B27C2A0D2A1D2A21F
:100A4100D2A320A5117F31120EC67F207E4E120E39
:100A51003D7E007F012220A6117F32120EC67F202B
:100A61007E4E120E3D7E007F022220A7117F33129F
:100A71000EC67F207E4E120E3D7E007F0322D2A045
:100A8100C2A1D2A2D2A320A5117F34120EC67F200B
:100A91007E4E120E3D7E007F042220A6117F35126C
:100AA1000EC67F207E4E120E3D7E007F052220A7BE
:100AB100117F36120EC67F207E4E120E3D7E007FC4
:100AC1000622D2A0D2A1C2A2D2A320A5117F3712A1
:100AD1000EC67F207E4E120E3D7E007F072220A68D
:100AE100117F38120EC67F207E4E120E3D7E007F92
:100AF100082220A7117F39120EC67F207E4E120ECA
:100B01003D7E007F0922D2A0D2A1D2A2C2A320A6FB
:100B1100107F30120EC67F207E4E120E3DE4FEFF86
:060B2100227F61020A338D
:010B270022AB
:100B28007F017E00120E6574292518F8E6FF600D16
:100B3800120EC60518E51870EE051780EAE4F517D9
:100B4800F5187FC8FE120E6CE51864024517601987
:100B5800120A31E51825E02443F8A60608A6070579
:100B680018E51870E3051780DFAE43AF447C007DBD
:100B78000A120CEEE5462FF53AE5453EF539120E18
:100B88005D74192518F8E6FF600D120EC60518E504
:100B98001870EE051780EAE4F517F5187FC8FE12FD
:100BA8000E6CE518640245176019120A31E518251C
:100BB800E0243FF8A60608A6070518E51870E3051F
:100BC8001780DFAE3FAF407C007D0A120CEEE54295
:100BD8002FF53CE5413EF53BE4F517F5187FE87E37
:100BE80003120E3D7F017E00120E6C7F807E000294
:020BF8000E6C81
:100DA100120E5D74082518F8E6FF600D120EC605D7
:100DB10018E51870EE051780EAE4F517F5187FC4F9
:100DC100FE120E6CAF3AAE39120D657F3A120EC6A5
:100DD100AF3CAE3B120D657FCB7E00120E6CAF3E79
:050DE100AE3D020D65AE
:100D55007F20120EC67FCB7E00120E6CAF3EAE3DDD
:040D65008E538F54C6
:100D69007C007D0A120D00EFFD3395E0FCED243087
:100D7900FDE43CFCC3ED9431EC648094804007EFC2
:100D89002430FF120EC6AE53AF547C007D0A120DFB
:080D990000ED2430FF020EC63C
:100EA500E4F54BF54CF580F59075A0F075B00F1293
:100EB5000E83C280120B28120DA1120C86D28080DF
:010EC500F933
:100C0600020EA5E493A3F8E493A34003F68001F251
:100C160008DFF48029E493A3F85407240CC8C333EF
:100C2600C4540F4420C8834004F456800146F6DFBE
:100C3600E4800B0102040810204080900DE6E47E5B
:100C4600019360BCA3FF543F30E509541FFEE493B3
:100C5600A360010ECF54C025E060A840B8E493A37A
:100C6600FAE493A3F8E493A3C8C582C8CAC583CAA5
:100C7600F0A3C8C582C8CAC583CADFE9DEE780BE5D
:010E230000CE
:100CEE00EF8DF0A4A8F0CF8CF0A428CE8DF0A42E1A
:020CFE00FE22D4
:100D0000BC000BBE0029EF8DF084FFADF022E4CCD7
:100D1000F875F008EF2FFFEE33FEEC33FCEE9DECA0
:100D2000984005FCEE9DFE0FD5F0E9E4CEFD22EDE6
:100D3000F8F5F0EE8420D21CFEADF075F008EF2F30
:100D4000FFED33FD4007985006D5F0F222C398FD21
:050D50000FD5F0EA22BE
:00000001FF
