:030000000208975C
:0C089700787FE4F6D8FD7581120208DEBF
:0C0923000A083F065B4F666D7D077F6F82
:10080000C290D291D292D2932094083094FD85095F
:100810001280142095083095FD850A1280092096D3
:10082000063096FD850B12D290C291D292D29320BF
:1008300094083094FD850C1280142095083095FDA5
:10084000850D1280092096063096FD850E12D290F5
:10085000D291C292D2932094083094FD850F1280D9
:10086000142095083095FD851012800920960630D9
:1008700096FD851112D290D291D292C29320940506
:100880003094FD800E2095053095FD80062096065B
:070890003096FD85081222DD
:0B093000E4F5A01208008512A080F87A
:1008A300020930E493A3F8E493A34003F68001F232
:1008B30008DFF48029E493A3F85407240CC8C33356
:1008C300C4540F4420C8834004F456800146F6DF25
:1008D300E4800B0102040810204080900923E47E89
:1008E300019360BCA3FF543F30E509541FFEE4931A
:1008F300A360010ECF54C025E060A840B8E493A3E1
:10090300FAE493A3F8E493A3C8C582C8CAC583CA0B
:10091300F0A3C8C582C8CAC583CADFE9DEE780BEC3
:01092F0000C7
:00000001FF
