:03000000020E47A6
:0C0E4700787FE4F6D8FD758124020D01CF
:100E1500212177656C636F6D6521210054656D70C7
:020E25003A0091
:03000B00020E538F
:030E5300B2A23216
:100D0100120DF77BFF7A0E7915120DCC7F01120EB1
:100D1100277BFF7A0E7921120DCC7F60120E277F7F
:100D210010120E377F07120E377F08120E377F0819
:100D3100120E377F08120E377F08120E377F071207
:100D41000E377F8B120E277F04120E37D2A0C2A35B
:100D5100C2A4C2A1758902758CC275A882D28CC247
:100D610087C286C285D2A3D2A17F017E00120DA7C0
:100D7100C2A3C2A120A0FD30A0FDD2A4AC90E41278
:100D810009108F0B8E0A8D098C087F85120E27AFF3
:0E0D91000BAE0AAD09AC08120AF1C2A480C173
:060DCC008B208A21892220
:100DD200E4F523F524AB20AA21A9228524828523C8
:100DE200831209C5FF600D120E370524E52470E554
:040DF200052380E174
:010DF60022DA
:100DF7007F38120E277F01120E277F0F120E277FD3
:0E0E070006120E277F0C120E277F80020E2788
:100E27008FB0C2A5120D9FC2A77F057E00020DA736
:100E37008FB0D2A5120D9FC2A77F057E00020DA716
:080D9F00C2A6D2A77F057E0069
:040DA700AB07AA06E6
:100DAB009000007C047DFBAF03AE021209F2C3E599
:100DBB00829FEE6480F8E5836480985003A380E300
:010DCB002205
:100AF1008F238E228D218C20E4FFFE7D207C41AB53
:100B010023AA22A921A8201208001209448F178EB6
:100B1100168D158C14E47FE87E03FDFCAB17AA1635
:100B2100A915A814C3120AE05003020C3BE47BE8A8
:100B31007A03F9F8AF17AE16AD15AC14120A408F4F
:100B41000F8E0E8D0D8C0CE50F2430F50FE4350E54
:100B5100F50EE4350DF50DE4350CF50CE47BE87A82
:100B610003F9F8AF17AE16AD15AC14120A40AC007C
:100B7100AD01AE02AF03E47B64FAF9F8120A408FCB
:100B81001B8E1A8D198C18E51B2430F51BE4351AC0
:100B9100F51AE43519F519E43518F518E47BE87A06
:100BA10003F9F8AF17AE16AD15AC14120A40AC003C
:100BB100AD01AE02AF03E47B64FAF9F8120A40AC6E
:100BC10000AD01AE02AF03E47B0AFAF9F8120A4064
:100BD1008F1F8E1E8D1D8C1CE51F2430F51FE435E3
:100BE1001EF51EE4351DF51DE4351CF51CE47B0ADC
:100BF100FAF9F8AF17AE16AD15AC14120A40AC00F5
:100C0100AD01AE02AF038F138E128D118C10E5135F
:100C11002430F513E43512F512E43511F511E435FC
:100C210010F510AF0F120E37AF1B120E37AF1F1298
:100C31000E377F2E120E37020CFBE47B64FAF9F8B3
:100C4100AF17AE16AD15AC14120A408F0F8E0E8D74
:100C51000D8C0CE50F2430F50FE4350EF50EE4355F
:100C61000DF50DE4350CF50CE47B64FAF9F8AF17DA
:100C7100AE16AD15AC14120A40AC00AD01AE02AF18
:100C810003E47B0AFAF9F8120A408F1B8E1A8D19B8
:100C91008C18E51B2430F51BE4351AF51AE43519D7
:100CA100F519E43518F518E47B0AFAF9F8AF17AE2F
:100CB10016AD15AC14120A40AC00AD01AE02AF0383
:100CC1008F1F8E1E8D1D8C1CE51F2430F51FE435F2
:100CD1001EF51EE4351DF51DE4351CF51CAF0F1284
:100CE1000E37AF1B120E377F2E120E37AF1F120EAB
:100CF10037E4F513F512F511F510AF13120E372283
:10080000EC4D6011E8497017ED33EC3304600DE4F2
:10081000FCFFFEFD22E933E8330470F80209B01250
:10082000097B58046009E4CC248150062850090251
:1008300009BA2840030209B7C0E0EB4A7044B98006
:1008400006D0E0FB0209A6EF4E701CBD8008EBFF4E
:10085000EAFEE9FD80EBE98DF0A4FEE5F00208E98F
:10086000E9CDF9EAFEEBFFEF89F0A4FCE5F0CE89D3
:10087000F0A42EFFE435F0CD89F0A42DFEE435F090
:100880008067EF4E7005BD80D780C3EF8BF0A4ACBE
:10089000F0EE8BF0A42CFCE435F0F8EF8AF0A42CF9
:1008A000E5F038FCE433CB8DF0A42CFCE5F03BF80C
:1008B000EE8AF0A42CFCE5F038F8E433CF89F0A4FC
:1008C0002CFCE5F038CF3400CE89F0A42FFFE5F002
:1008D0003EFEE433C98DF0A42EFEE5F039CD8AF05A
:1008E000A42FFFE5F03EFEE43DFD33D0E0FB5007D2
:1008F0000BBB000F0209BAEC2CFCEF33FFEE33FE0A
:06090000ED33FD02099237
:1009060075F020800E75F010800575F0087D007E6C
:10091600007F003392D530D503120AD2EC33401053
:10092600EF33FFEE33FEED33FDEC33FCD5F0ED2275
:0E093600E5F0247EA2D513CC92E7CDCEFF22B1
:10094400EDD2E7CD33EC3392D524814006E4FFFEAB
:10095400FDFC22FCE4CFCECDCC24E0501174FF800A
:10096400EDC3CC13CCCD13CDCE13CECF13CF0470A7
:07097400F030D5DE020AD2CB
:10097B00E9D2E7C933E833F892D5EDD2E7CD33ECC2
:07098B0033FC5002B2D5223B
:10099200EC30E7100FBF000C0EBE00080DBD0004C6
:1009A2000BEB6014A2D5EB13FCED92E7FD2274FF72
:1009B200FCFDFEFF22E480F8A2D574FF13FC7D80CB
:0309C200E480EFDF
:1009C500BB010CE58229F582E5833AF583E02250E7
:1009D50006E92582F8E622BBFE06E92582F8E22231
:0D09E500E58229F582E5833AF583E493224B
:1009F200EF8DF0A4A8F0CF8CF0A428CE8DF0A42E19
:020A0200FE22D2
:100A040075F008758200EF2FFFEE33FECD33CDCCA9
:100A140033CCC58233C5829BED9AEC99E58298402C
:100A24000CF582EE9BFEED9AFDEC99FC0FD5F0D609
:100A3400E4CEFBE4CDFAE4CCF9A88222B800C1B933
:100A44000059BA002DEC8BF084CFCECDFCE5F0CB71
:100A5400F97818EF2FFFEE33FEED33FDEC33FCEBAA
:100A640033FB10D703994004EB99FB0FD8E5E4F965
:100A7400FA227818EF2FFFEE33FEED33FDEC33FC52
:100A8400C933C910D7059BE99A4007EC9BFCE99A46
:100A9400F90FD8E0E4C9FAE4CCFB2275F010EF2F8B
:100AA400FFEE33FEED33FDCC33CCC833C810D7078B
:100AB4009BEC9AE899400AED9BFDEC9AFCE899F8C6
:0E0AC4000FD5F0DAE4CDFBE4CCFAE4C8F92259
:0E0AD200C3E49FFFE49EFEE49DFDE49CFC2235
:100AE000EB9FF5F0EA9E42F0E99D42F0E89C45F06C
:010AF00022E3
:00000001FF
