:030000000209B939
:0C09B900787FE4F6D8FD7581100208F686
:0909C5004D50492D383035310048
:070977001209277F0A7E0030
:10097E00E4FDFCC3ED9FEC9E5015E4FBFA0BBB00AF
:0F098E00010ABA04F8BBFBF50DBD00010C80E4B3
:01099D002237
:10092700A907E954F0F5A0C2A0C2A1D2A27F017E17
:100937000012097EC2A2E9C454F0F5A0C2A0C2A168
:08094700D2A212097EC2A22215
:10094F00A907E954F0F5A0D2A0C2A1D2A27F017EDF
:10095F000012097EC2A2E9C454F0F5A0D2A0C2A130
:08096F00D2A212097EC2A222ED
:10099E007F281209777F0C1209777F011209777F62
:0B09AE00801209277F0A7E0002097EEC
:1008F60078087C007D007BFF7A0979C57E007F0938
:100906001208D090000012099EAF8274082FF8E6F4
:10091600FF600D12094FA37F327E0012097E80E927
:0109260022AE
:10080000E709F608DFFA8046E709F208DFFA803EDA
:1008100088828C83E709F0A3DFFA8032E309F608C7
:10082000DFFA8078E309F208DFFA807088828C832F
:10083000E309F0A3DFFA806489828A83E0A3F608E3
:10084000DFFA805889828A83E0A3F208DFFA804CBD
:1008500080D280FA80C680D4806980F28033801094
:1008600080A680EA809A80A880DA80E280CA8033FD
:1008700089828A83ECFAE493A3C8C582C8CCC58375
:10088000CCF0A3C8C582C8CCC583CCDFE9DEE78045
:100890000D89828A83E493A3F608DFF9ECFAA9F0C4
:1008A000EDFB2289828A83ECFAE0A3C8C582C8CC1A
:1008B000C583CCF0A3C8C582C8CCC583CCDFEADE33
:1008C000E880DB89828A83E493A3F208DFF980CC95
:1008D00088F0EF60010E4E60C388F0ED2402B4048E
:1008E0000050B9F582EB2402B4040050AF23234535
:0608F00082239008507302
:00000001FF
