:03000000020800F3
:0C080000787FE4F6D8FD758129020847D6
:10093000082000010002000400080818000C00064E
:100940000003000910080008000C00040006000263
:0609500000030001000994
:09090700F808E6F5A07F647E000B
:10091000E4FDFCC3ED9FEC9E5015E4FBFA0BBB001D
:0F092000010ABA04F8BBFBF50DBD00010C80E421
:01092F0022A5
:10088C0020B026E4F528F529D3E5299403E528942E
:10089C000050EDE52925E02420120907E4F5A00518
:1008AC0029E52970E3052880DF20B126E4F528F539
:1008BC0029D3E5299403E528940050C4E52925E0C3
:1008CC002418120907E4F5A00529E52970E3052889
:1008DC0080DF20B2ABE4F528F529D3E5299407E5B0
:1008EC00289400509BE52925E02408120907E4F51B
:0B08FC00A00529E52970E3052880DF36
:10080C0002088CE493A3F8E493A34003F68001F26E
:10081C0008DFF48029E493A3F85407240CC8C333ED
:10082C00C4540F4420C8834004F456800146F6DFBC
:10083C00E4800B0102040810204080900930E47E13
:10084C00019360BCA3FF543F30E509541FFEE493B1
:10085C00A360010ECF54C025E060A840B8E493A378
:10086C00FAE493A3F8E493A3C8C582C8CAC583CAA3
:10087C00F0A3C8C582C8CAC583CADFE9DEE780BE5B
:0109560000A0
:00000001FF
